:100030007A0579FAD9FEDAFA22F5A0C2B0D2B11166
:1000400030C2B122F5A0D2B0D2B11130C2B1227407
:1000500038113974C0113974061139740111302204
:090060009360051144A380F8220D
:10010000114F900200116011307480113920900954
:1001100090020C1160D291800790021D1160C29173
:04012000113080E535
:100200005261696E2053656E736F72005261696E40
:10021000204465746563746564202020004E6F205F
:0E0220005261696E2044657465637465640004
:00000001FF
