:030000000208EE05
:0C08EE00787FE4F6D8FD75810A0208004E
:100841005261696E2053656E736F72005261696EF9
:10085100204465746563746564202020004E6F2018
:0E0861005261696E20446574656374656400BD
:06086F00D2B17F027E0001
:10087500E4FDFCC3ED9FEC9E5015E4FBFA0BBB00B9
:0F088500010ABA04F8BBFBF50DBD00010C80E4BD
:010894002241
:0A08FA008FA0C2B012086FC2B12235
:0A0904008FA0D2B012086FC2B1221A
:100895008B088A09890AAB08AA09A90A1208D56032
:1008A50013050AE50A7002050914F91208D5FF12A5
:0508B500090480E222AD
:1008BA007F381208FA7F0C1208FA7F061208FA7FAC
:0B08CA00011208FA7F057E000208758D
:100800001208BA7BFF7A0879411208957FE87E03C7
:100810001208757F011208FAC2917F801208FA7BD4
:10082000FF20900B7A08794D120895D29180097AB1
:1008300008795E120895C2917FF47E0112087580D6
:01084000D9DE
:1008D500BB010689828A83E0225002E722BBFE0221
:0908E500E32289828A83E4932254
:00000001FF
